{
  "_format": "hh-sol-artifact-1",
  "contractName": "DocumentVerification",
  "sourceName": "contracts/DocumentVerification.sol",
  "abi": [
    {
      "inputs": [
        {
          "internalType": "string",
          "name": "",
          "type": "string"
        }
      ],
      "name": "documents",
      "outputs": [
        {
          "internalType": "bool",
          "name": "exists",
          "type": "bool"
        },
        {
          "internalType": "uint256",
          "name": "timestamp",
          "type": "uint256"
        },
        {
          "internalType": "address",
          "name": "issuer",
          "type": "address"
        }
      ],
      "stateMutability": "view",
      "type": "function"
    },
    {
      "inputs": [
        {
          "internalType": "string",
          "name": "_hash",
          "type": "string"
        }
      ],
      "name": "storeDocumentHash",
      "outputs": [],
      "stateMutability": "nonpayable",
      "type": "function"
    },
    {
      "inputs": [
        {
          "internalType": "string",
          "name": "_hash",
          "type": "string"
        }
      ],
      "name": "verifyDocument",
      "outputs": [
        {
          "internalType": "bool",
          "name": "",
          "type": "bool"
        },
        {
          "internalType": "uint256",
          "name": "",
          "type": "uint256"
        },
        {
          "internalType": "address",
          "name": "",
          "type": "address"
        }
      ],
      "stateMutability": "view",
      "type": "function"
    }
  ],
  "bytecode": "0x608060405234801561001057600080fd5b506105d2806100206000396000f3fe608060405234801561001057600080fd5b50600436106100415760003560e01c8063b3dd697b14610046578063b59e227114610078578063beee5eb714610094575b600080fd5b610060600480360381019061005b919061041f565b6100c6565b60405161006f939291906104dd565b60405180910390f35b610092600480360381019061008d919061041f565b610133565b005b6100ae60048036038101906100a9919061041f565b6101fc565b6040516100bd939291906104dd565b60405180910390f35b6000818051602081018201805184825260208301602085012081835280955050505050506000915090508060000160009054906101000a900460ff16908060010154908060020160009054906101000a900473ffffffffffffffffffffffffffffffffffffffff16905083565b60405180606001604052806001151581526020014281526020013373ffffffffffffffffffffffffffffffffffffffff168152506000826040516101779190610585565b908152602001604051809103902060008201518160000160006101000a81548160ff0219169083151502179055506020820151816001015560408201518160020160006101000a81548173ffffffffffffffffffffffffffffffffffffffff021916908373ffffffffffffffffffffffffffffffffffffffff16021790555090505050565b6000806000806000856040516102129190610585565b90815260200160405180910390206040518060600160405290816000820160009054906101000a900460ff16151515158152602001600182015481526020016002820160009054906101000a900473ffffffffffffffffffffffffffffffffffffffff1673ffffffffffffffffffffffffffffffffffffffff1673ffffffffffffffffffffffffffffffffffffffff16815250509050806000015181602001518260400151935093509350509193909250565b6000604051905090565b600080fd5b600080fd5b600080fd5b600080fd5b6000601f19601f8301169050919050565b7f4e487b7100000000000000000000000000000000000000000000000000000000600052604160045260246000fd5b61032c826102e3565b810181811067ffffffffffffffff8211171561034b5761034a6102f4565b5b80604052505050565b600061035e6102c5565b905061036a8282610323565b919050565b600067ffffffffffffffff82111561038a576103896102f4565b5b610393826102e3565b9050602081019050919050565b82818337600083830152505050565b60006103c26103bd8461036f565b610354565b9050828152602081018484840111156103de576103dd6102de565b5b6103e98482856103a0565b509392505050565b600082601f830112610406576104056102d9565b5b81356104168482602086016103af565b91505092915050565b600060208284031215610435576104346102cf565b5b600082013567ffffffffffffffff811115610453576104526102d4565b5b61045f848285016103f1565b91505092915050565b60008115159050919050565b61047d81610468565b82525050565b6000819050919050565b61049681610483565b82525050565b600073ffffffffffffffffffffffffffffffffffffffff82169050919050565b60006104c78261049c565b9050919050565b6104d7816104bc565b82525050565b60006060820190506104f26000830186610474565b6104ff602083018561048d565b61050c60408301846104ce565b949350505050565b600081519050919050565b600081905092915050565b60005b8381101561054857808201518184015260208101905061052d565b60008484015250505050565b600061055f82610514565b610569818561051f565b935061057981856020860161052a565b80840191505092915050565b60006105918284610554565b91508190509291505056fea2646970667358221220fff7eb317f2f58a21978ef819f37e3369247679c77273c1e40b2091f59d1ccc864736f6c63430008140033",
  "linkReferences": {},
  "deployedLinkReferences": {}
}